:020000040800F2
:10000000501A002021050008C5020008C702000898
:10001000CB020008CF020008D30200080000000055
:10002000000000000000000000000000D7020008EF
:10003000D902000800000000DB020008833000083D
:100040003B0500083B0500083B0500083B05000890
:100050003B0500083B0500083B0500083B05000880
:100060003B0500083B0500083B0500083B05000870
:100070003B0500083B0500083B0500083B05000860
:100080003B0500083B0500083B0500083B05000850
:10009000455200083B0500083B050008C5780008EC
:1000A0003B0500083B0500083B0500083B05000830
:1000B000C54500089D7D00083B0500083B0500087C
:1000C0003B0500083B0500083B0500083B05000810
:1000D0003B0500083B0500088B3100083D4D00083A
:1000E0003B0500083B0500083B0500083B050008F0
:1000F0003B0500083B0500083B0500083B050008E0
:100100003B0500083B0500083B0500083B050008CF
:100110003B0500083B0500083B0500083B050008BF
:100120003B0500083B0500083B0500083B050008AF
:1001300000F002F800F0B0F80AA090E8000C824449
:100140008344AAF10107DA4501D100F0A5F8AFF226
:10015000090EBAE80F0013F0010F18BFFB1A43F0A5
:10016000010318475C0301007C0301000A444FF0BF
:10017000000C10F8013B13F0070408BF10F8014B06
:100180001D1108BF10F8015B641E05D010F8016B4B
:10019000641E01F8016BF9D113F0080F1EBF10F8AF
:1001A000014BAD1C0C1B09D16D1E58BF01F801CBD2
:1001B000FAD505E014F8016B01F8016B6D1EF9D555
:1001C0009142D6D37047000000230024002500266A
:1001D000103A28BF78C1FBD8520728BF30C148BFAA
:1001E0000B6070476E290BF0FD8570290CF069815A
:1001F00066290EF0648465290EF0618467290EF08B
:100200005E846129AFF3008003681B0A28BF41F0B8
:10021000800169290BF01A8364290BF01783752973
:100220000BF014836F290CF0F68078290CF03581DF
:10023000E9290CF09180E4290CF08E80F5290CF06E
:100240008B80EF290CF0F380F8290CF034810368DF
:10025000DB0928BF41F0800163290CF0FD8173297F
:100260000CF00282E3290CF00D82F3290CF01282CB
:10027000002070471FB50CF057F904000020002142
:100280000DF0BCFA401C6060002000210DF0A0FAC7
:10029000E0601FBD10B510BD0CF09AFA1146FFF7D3
:1002A000E9FF00F01BF80CF0C1FA03B4FFF7F2FF0E
:1002B00003BC02F001FF000030BF72B662B680F3EB
:1002C00008887047704700BFFEE700BFFEE700BF29
:1002D000FEE700BFFEE770477047704702F0ECFD95
:1002E000012003F0CDF803F039F903F069F9022099
:1002F00002F0DCFF002141F61F4004F039F84FF412
:10030000165004F0C1FC04F093F804F0F5F841F63F
:100310001F4140F2F31003F0FDFF4FF4FA7002F0BA
:1003200008FE04F071F90AF0E2FE0AF0F4FE03F0B0
:1003300023FE04F0FDFB01E005F0E8F8FCE7000017
:100340000CB50020019000906C48006840F48030AB
:100350006A49086000BF6948006800F400300090F6
:100360000198401C0190009818B90198B0F5A06F51
:10037000F1D16248006800F4003010B10120009013
:1003800001E0002000900098012843D15C480068FB
:1003900040F010005A4908600846006820F0030049
:1003A00008600846006840F0020008605348406852
:1003B000524948600846406848600846406840F432
:1003C000806048600846406820F47C104860084619
:1003D000406840F4E81048600846006840F08070CB
:1003E000086000BF4548006800F000700028F9D0A0
:1003F0004248406820F00300404948600846406891
:1004000040F00200486000BF3C48406800F00C002B
:100410000828F9D10CBD10B5FFF792FF10BD10B53B
:100420003648006840F001003449086008464068DA
:10043000344908403149486008460068324908405C
:100440002E4908600846006820F4802008600846AD
:10045000406820F4FE0048604FF41F008860FFF7FA
:10046000DAFF4FF000602949086010BD10B5002187
:1004700000200022214B5B6803F00C0121B104290C
:1004800006D0082928D107E0214B224C236027E021
:100490001F4B204C236023E0184B5B6803F4701063
:1004A000164B5B6803F48032022303EB904022B9C1
:1004B000194B4343174C23600DE0104B5B6803F46A
:1004C000003323B1144B4343124C236003E0104B21
:1004D0004343104C236003E00D4B0E4C236000BFE0
:1004E00000BF064B5B68C3F303130C4CE15C094B84
:1004F0001B68CB40074C236010BD00000010024079
:10050000002002400000FFF8FFFFF6FE08ED00E0CB
:1005100000127A007C00002000093D0080000020CD
:100520000948804709480047FEE7FEE7FEE7FEE787
:10053000FEE7FEE7FEE7FEE7FEE7FEE704480549C3
:10054000054A064B704700001F04000831010008EF
:1005500050140020501A0020501600205016002081
:1005600031490143314A1160704770B500210023C1
:100570000F22C47804B32D4C246804F4E064C4F55D
:10058000E064210AC1F10403CA40447804FA03F18B
:100590008478144021430901254C0678A15504783C
:1005A00004F01F050124AC4005786D11AD0005F184
:1005B000E025C5F8004109E0047804F01F05012496
:1005C000AC401C4D0678761145F8264070BD1A4A9D
:1005D0000A400243154B1B1F1A60704739B1134A7A
:1005E000121D12680243114B1B1D1A6006E00F4AD0
:1005F000121D126882430D4B1B1D1A6070470428A0
:1006000008D14FF0E021096941F004014FF0E022E8
:10061000116107E04FF0E021096921F004014FF07A
:10062000E0221161704700000000FA050CED00E0C7
:1006300000E400E080E100E080FFFF1F10B5044609
:10064000FA48844208D10121401501F0B3FA002193
:10065000601501F0AFFA17E0F548844208D1012196
:10066000001501F0A7FA0021201501F0A3FA0BE014
:10067000F048844208D10121C80301F09BFA00210F
:100680004FF4004001F096FA10BD30B5024600204C
:1006900000235068E84C20400D790C6844EA05249A
:1006A000204350609068E54C2040D1E902542C432F
:1006B0004D7944EA450420439060D06A20F47000EC
:1006C0000C7C641EE4B2234340EA0350D06230BD88
:1006D00000210160017141718160C16001210174DB
:1006E000704721B1826842F00102826003E08268B3
:1006F00022F001028260704721B1826842F4807268
:10070000826003E0826822F480728260704710B5D4
:100710000023CBB21AB144681C43446002E0446831
:100720009C43446010BD816841F0080181607047BE
:10073000014600208A6802F008020AB1012000E0A8
:1007400000207047816841F00401816070470146D4
:1007500000208A6802F004020AB1012000E00020B3
:10076000704721B1826842F4A002826003E082688F
:1007700022F4A00282607047014600208A6802F4D9
:1007800080020AB1012000E00020704710B50A463F
:1007900000210023416821F46041531E41EA4331A6
:1007A000416010BD21B1426842F40062426003E042
:1007B000426822F4006242607047F0B504460D467C
:1007C00000200021092D11DDE068A5F10A0606EBE5
:1007D0004607072606FA07F18843A5F10A0606EB45
:1007E000460603FA06F10843E0600CE0206905EBD9
:1007F0004507072606FA07F1884305EB450603FA85
:1008000006F108432061072A0FDA606B561E06EBDB
:1008100086071F2606FA07F18843561E06EB860652
:1008200005FA06F10843606322E00D2A0FDA206B17
:10083000D61F06EB86071F2606FA07F18843D61F48
:1008400006EB860605FA06F10843206310E0E06A2D
:10085000A2F10D0606EB86071F2606FA07F188436C
:10086000A2F10D0606EB860605FA06F10843E062E2
:10087000F0BD21B1826842F48012826003E0826898
:1008800022F48012826070470146C86C80B27047C3
:1008900066484C300068704721B1426842F480627B
:1008A000426003E0426822F480624260704721B1F6
:1008B000426842F48052426003E0426822F480526F
:1008C000426070470A460021816821F4E0411143EB
:1008D0008160704721B1826842F40042826003E087
:1008E000826822F400428260704721B1826842F43B
:1008F0000212826003E0826822F402128260704772
:10090000014600208A6802F400120AB1012000E0CA
:1009100000207047F0B5044615460020002200264E
:10092000092911DDE068A1F10A0707EB470C072749
:1009300007FA0CF29043A1F10A0707EB470703FA05
:1009400007F21043E0600CE0206901EB410C07273F
:1009500007FA0CF2904301EB410703FA07F2104348
:100960002061A06BC0F30156EF1C06F1010CA7EB50
:100970000C0707EB870C1F2707FA0CF29043EF1CBC
:1009800006F1010CA7EB0C0707EB870701FA07F24A
:100990001043A063F0BD10B50A4600210023816B0F
:1009A00021F44011531E41EA0351816310BD08B583
:1009B000002300930090009B0B440093009B1A605F
:1009C00008BD08B5024600200090009201F1280001
:1009D000009B184400900098006880B208BD0A4649
:1009E00000214168164B1940114341607047416234
:1009F000826270470A460021416821F01F011143BD
:100A00004160704740B109490831096841F400016B
:100A1000064A0832116007E004490831096821F4E8
:100A20000001024A083211607047000000240140B2
:100A300000280140003C0140FFFEF0FFFDF7F1FF00
:100A4000FFFD3FFF0246002013680B400BB1012061
:100A500000E000207047CA430260704770B502464C
:100A60000020002300240B125568CEB205EA0604CC
:100A700015681D4015B10CB1012000E0002070BDCB
:100A800000220A12D34303607047000010B5012012
:100A900001F0AAF8002001F0A7F810BD2A4908606B
:100AA00070472949091F0860704727498431086049
:100AB000704701460020254A10884FF67F421040BB
:100AC0000843224A10807047014600201F4A1088C0
:100AD0004FF68072104008431C4A1080704708B5DA
:100AE00000220092194A2C3A0092009A0244009285
:100AF000009A116008BD08B5014600200090134817
:100B00002C3800900098084400900098008808BD98
:100B10000D489C300068C0B270470C48083000880F
:100B200040F0010009490831088070470648A030AC
:100B30000068C0B2704705480830008840F00200E5
:100B4000024908310880704704860D422C6C004031
:100B500001684FF6FE7211400160002101604160A2
:100B60008160C1608D49884208D18C490839496843
:100B700041F00F01894A083A51608AE087491431EF
:100B8000884208D185490839496841F0F001834A13
:100B9000083A51607DE081492831884208D17F4977
:100BA0000839496841F470617C4A083A516070E044
:100BB0007A493C31884208D178490839496841F47A
:100BC0007041764A083A516063E074495031884276
:100BD00008D172490839496841F470216F4A083ACE
:100BE000516056E06D496431884208D16B4908393B
:100BF000496841F47001694A083A516049E067491F
:100C00007831884208D165490839496841F07061F6
:100C1000624A083A51603CE06149884206D1011FAE
:100C2000096841F00F01021F116032E05C49143184
:100C3000884208D15A49091F096841F0F001584A11
:100C4000121F116025E056492831884208D15449C5
:100C5000091F096841F47061514A121F116018E0C0
:100C60004F493C31884208D14D49091F096841F478
:100C700070414B4A121F11600BE0494950318842C4
:100C800007D14749091F096841F47021444A121FDE
:100C90001160704710B50022026847F6F0739A435E
:100CA0000C6A8B6823430C6923434C6923438C698A
:100CB0002343CC6923434C6A23438C6A23431A435E
:100CC0000260CB6843600B6883604B68C36010BDF3
:100CD0000021016041608160C16001614161816109
:100CE000C161016241628162704721B1026842F0D4
:100CF0000102026004E002684FF6FE731A400260CF
:100D000070471AB103680B43036002E003688B432A
:100D100003607047416070470146486880B2704781
:100D200001460020002201F080531BB11C4B083B00
:100D30001A6802E0194B083B1A6802EA01030BB17A
:100D4000012000E00020704700F0805119B11449E3
:100D5000091F086002E011490839486070470146E0
:100D60000020002201F080531BB10D4B083B1A6894
:100D700002E00A4B083B1A6802EA01030BB10120AA
:100D800000E00020704700F0805119B10449091FAC
:100D9000086002E0014908394860704708000240D5
:100DA00008040240002044490860091D0860091D2C
:100DB0000860091D086041483F49143108607047C8
:100DC00000213D498279002A3AD00A461268036818
:100DD0009A430B461A600A1D126803689A430B1D5A
:100DE0001A60027911440A6803681A430A60324A99
:100DF0000832126803689A432F4B08331A601A1D91
:100E0000126803689A432C4B0C331A604279102AFB
:100E10000ED11A1F126803681A43274B08331A6051
:100E20001A1D126803681A43234B0C331A600DE035
:100E30002149427911440A6803681A430A6005E0AF
:100E4000027911440A6803689A430A6070470021D6
:100E5000016001710C2141710021817170471649B7
:100E6000103109680143144A10321160704701467D
:100E70000020114A143212680A400AB1012000E031
:100E8000002070470C49143108607047014600206B
:100E90000022094B1B6803EA0102074B14331B684D
:100EA0000B4013B10AB1012000E000207047024955
:100EB000143108607047000000040140FFFF0F007C
:100EC00001460020FE4A106800F038000843106018
:100ED0007047FB49096821F00801F94A1160114681
:100EE0000968014311607047F549096821F0100154
:100EF000F34A116011460968014311607047F148D7
:100F0000EF494860F04848607047EE48EC49486057
:100F1000ED4848607047EA48006940F08000E849C1
:100F200008617047E648006940F08000E4490861C4
:100F300070470420E249C96801F0010109B10120AC
:100F40000EE0DF49C96801F0040109B1022007E0A1
:100F5000DB49C96801F0100109B1032000E0042059
:100F6000704700B502460423FFF7E3FF034603E0A2
:100F7000FFF7DFFF0346521E012B01D1002AF7D1F4
:100F800002B90523184600BD30B5044604254FF4C8
:100F90003020FFF7E6FF0546042D17D1C848006949
:100FA00040F00200C649086108464461006940F00B
:100FB000400008614FF43020FFF7D3FF0546C048DA
:100FC000006941F6FD710840BD490861284630BD01
:100FD00010B504244FF43020FFF7C3FF0446042C5F
:100FE00016D1B748006940F00400B54908610846C9
:100FF000006940F0400008614FF43020FFF7B1FF76
:101000000446AF48006941F6FB710840AC490861ED
:10101000204610BD00B502460423FFF78AFF0346B1
:1010200003E0FFF786FF0346521E012B01D1002A81
:10103000F7D102B90523184600BD10B504244FF4BA
:101040003020FFF7E7FF0446042C16D19C480069C6
:1010500040F004009A4908610846006940F04000E9
:1010600008614FF43020FFF7D5FF0446944800692B
:1010700041F6FB71084092490861204610BD0020EE
:101080008F49C96901F0020109B1012000E0002087
:10109000704730B5A5250424FFF7F1FF00B1002506
:1010A0004FF43020FFF75DFF0446042C3AD1854809
:1010B00083498860844888600846006940F02000C1
:1010C00008610846006940F0400008614FF4302094
:1010D000FFF747FF0446042C1BD17948006941F60D
:1010E000DF710840764908610846006940F0100049
:1010F000086176480580E002FFF733FF0446052CBF
:1011000010D06F48006941F6EF7108406C490861E2
:1011100008E0052C06D06A48006941F6EF710840E6
:1011200067490861204630BD78B506460C4604255F
:1011300000200090E802FFF714FF0546042D24D19B
:101140005F48006940F001005D4908613480E802B1
:10115000FFF707FF0546042D10D1B01C0090200CAE
:1011600000990880E802FFF7FCFE05465448006934
:1011700041F6FE7108405249086106E05048006996
:1011800041F6FE7108404E490861284678BD70B5A9
:1011900004460D460426F002FFF7E3FE0646042E41
:1011A00011D14748006940F0010045490861258098
:1011B000F002FFF7D6FE06464148006941F6FE718F
:1011C00008403F490861304670BD70B505460E467F
:1011D0000424E002FFF7C5FE0446042C17D1394869
:1011E00037498860384888600846006940F0100038
:1011F00008612E80E002FFF7B4FE0446052C06D0FD
:101200002F48006941F6EF7108402D4908612046DA
:1012100070BD2DE9F04304464FF6FF763746B046E1
:10122000B1460425E443E6B2C4F30727C4F30748F4
:101230004FEA1469E802FFF794FE0546042D49D1F0
:1012400020481F498860204888600846006940F0AF
:1012500010000861FF2E06D01C4808300680E80206
:10126000FFF77FFE0546042D08D1FF2F06D0174853
:101270000A300780E802FFF774FE0546042D0AD104
:10128000B8F1FF0F07D011480C30A0F80080E80239
:10129000FFF767FE0546042D0AD1B9F1FF0F07D00D
:1012A0000A480E30A0F80090E802FFF75AFE054603
:1012B000052D0FD00248006941F6EF71084007E0A4
:1012C0000020024023016745AB89EFCD00F8FF1FE6
:1012D000664908612846BDE8F08330B50546042418
:1012E0004FF43020FFF73DFE0446042C41D1604806
:1012F0005E4988605F4888600846006940F02000C9
:1013000008610846006940F0400008614FF4302051
:10131000FFF727FE0446042C22D15448006941F609
:10132000DF710840514908610846006940F010002B
:1013300008611DB100205049088002E0A5204E49F7
:1013400008804FF43020FFF70CFE0446052C10D027
:101350004648006941F6EF7108404449086108E0D9
:10136000052C06D04148006941F6DF7108403F492D
:101370000861204630BDF0B505460E4617460424E8
:101380003B483A4988603B488860E002FFF7E9FD46
:101390000446042C19D13548006940F01000334947
:1013A000086147F0F800304328433349891C08801E
:1013B000E002FFF7D6FD0446052C06D02B48006955
:1013C00041F6EF710840294908612046F0BD2748E1
:1013D000C069800870472548006A7047002023498B
:1013E000096801F0200109B1012000E000207047E8
:1013F00029B11E4A126902431C4B1A6104E01B4AC0
:1014000012698243194B1A61704701460020012975
:1014100008D1164AD26902F001020AB1012008E09F
:10142000002006E0114AD2680A400AB1012000E01B
:10143000002070470D49C860704704200B49C968F7
:1014400001F0010109B101200EE00849C96801F06D
:10145000040109B1022007E00449C96801F0100144
:1014600009B1032000E00420704700000020024082
:1014700023016745AB89EFCD00F8FF1F10B5044687
:10148000CC48844208D10121042000F093FB0021C4
:10149000042000F08FFB46E0C748844208D10121B8
:1014A000082000F087FB0021082000F083FB3AE0D1
:1014B000C248844208D10121102000F07BFB0021AA
:1014C000102000F077FB2EE0BD48844208D10121B6
:1014D000202000F06FFB0021202000F06BFB22E0B9
:1014E000B848844208D10121402000F063FB00216C
:1014F000402000F05FFB16E0B348844208D1012190
:10150000802000F057FB0021802000F053FB0AE010
:10151000AE48844207D10121801500F04BFB002129
:10152000A01500F047FB10BD10B50121084600F0E2
:1015300041FB0021012000F03DFB10BD2DE9F041F1
:10154000024600250026002000230024002791F8F1
:1015500003C00CF00F0591F803C00CF0100CBCF1A7
:10156000000F03D091F802C04CEA050591F800C0C5
:10157000BCF1000F31D0146800202BE04FF0010CBB
:101580000CFA00F3B1F800C00CEA03069E4220D129
:1015900083004FF00F0C0CFA03F7BC4305FA03FC71
:1015A0004CEA040491F803C0BCF1280F06D14FF0B7
:1015B000010C0CFA00FCC2F814C00AE091F803C058
:1015C000BCF1480F05D14FF0010C0CFA00FCC2F839
:1015D00010C0401C0828D1D31460B1F800C0BCF181
:1015E000FF0F34DD546800202EE000F1080C4FF0AE
:1015F000010808FA0CF3B1F800C00CEA03069E4299
:1016000021D183004FF00F0C0CFA03F7BC4305FA0D
:1016100003FC4CEA040491F803C0BCF1280F05D187
:1016200000F1080C08FA0CF8C2F8148091F803C015
:10163000BCF1480F07D100F1080C4FF0010808FA7F
:101640000CF8C2F81080401C0828CED35460BDE8C6
:10165000F0814FF6FF710180022181700421C17079
:1016600070470246002093680B400BB1012000E058
:10167000002070470146886880B27047024600200B
:10168000D3680B400BB1012000E0002070470146F9
:10169000C86880B2704701617047416170470AB104
:1016A000016100E041617047C16070474FF48032D2
:1016B0000A43826181618261826982697047024660
:1016C0000020434B18684FF68073184040EA021020
:1016D00008433F4B186070473E49C8617047F0B5FA
:1016E0000A46002300240021002500F00046B6F140
:1016F000004F02D1364EF16901E0354E7168C0F3FA
:10170000034583B200F44016B6F5401F08D121F01E
:1017100070612F4E766826F070662D4F7E6012E065
:1017200000F48016B6F5801F06D1032606FA05F4EC
:10173000A14341F0706106E0460D360103FA06F65A
:10174000B14341F0706122B1460D360103FA06F64D
:10175000314300F00046B6F1004F02D11C4EF1615A
:1017600001E01B4E7160F0BD30B500228B071C0FED
:101770000F2303FA04F2164B08338C1053F824306D
:101780009343134C08348D1044F8253023468C10B5
:1017900053F824308C07240F00FA04F423430C4C34
:1017A00008348D1044F8253030BD0A49DC3108601A
:1017B0007047000000080140000C0140001001408B
:1017C0000014014000180140001C014000200140AD
:1017D000000001400000204210B50121080700F080
:1017E000F6F900214FF0805000F0F1F910BD2A49C0
:1017F0000862704728490861704701460020274A5F
:10180000106820F0E0000843106070472249A031C2
:101810000860704710B502460020204B186820F081
:101820000300104318601E4B1B6843F004031C4C5C
:101830002360012901D130BF00E020BF184B1B6895
:1018400023F00403164C236010BD1448006840F0D8
:101850000400124908600846006840F00200086071
:101860000F48006840F004000D49086000BF00BF49
:1018700030BF704701460020084A52680A400AB14A
:10188000012000E0002070470449096841EA800116
:10189000024A11607047000000000E4200700040D4
:1018A00010ED00E0DF48006840F00100DD4908600D
:1018B00008464068DC490840DA4948600846006844
:1018C000DA490840D74908600846006820F48020BB
:1018D00008600846406820F4FE0048604FF41F008E
:1018E00088607047CF49096821F48031CD4A116082
:1018F0001146096821F480211160B0F5803F03D0C2
:10190000B0F5802F0ED106E0C649096841F4803158
:10191000C44A116007E0C349096841F4A021C14AE3
:10192000116000E000BF00BF704710B50146002203
:10193000002300204A11012A02D1BA4C236806E094
:10194000022A02D1B74C236A01E0B64C636A01F067
:101950001F02012494401C400CB1012000E0002033
:1019600010BD38B5002000900024002500BF3120B4
:10197000FFF7DBFF05460098401C00900098B0F58B
:10198000A06F01D0002DF2D03120FFF7CEFF08B1BB
:10199000012400E00024204638BD01460020A14A71
:1019A000106820F0F80040EAC10010607047A049BC
:1019B00008607047024600209A4B586820F47C105B
:1019C00042EA01031843974B5860704798490866EC
:1019D000704701460020934A506820F003000843F6
:1019E000506070478F48406800F00C007047014617
:1019F00000208C4A506820F0F00008435060704787
:101A000001460020874A506820F4E0600843506097
:101A1000704701460020834A506820F4605040EA35
:101A2000C1005060704729B17E4A527A02437D4B13
:101A30005A7204E07B4A527A82437A4B5A72704758
:101A40007B49D8310860704701460020754A5068CC
:101A500020F440400843506070470021714A203212
:101A60001170704A82F82010012802D004280AD18F
:101A700004E001216B4A2032117005E00521694A1A
:101A80002032117000E000BF00BF70476949086054
:101A900070476449096A0143624A116270476549A7
:101AA00044390860704730B500210022002400232B
:101AB0005C4D6D6805F00C0121B1042905D00829A1
:101AC00023D105E05C4D056022E05B4D05601FE021
:101AD000544D6D6805F47012524D6D6805F48034F4
:101AE000022505EB92421CB9544D554305600BE0AD
:101AF0004C4D6D6805F400351DB1504D55430560E2
:101B000002E04D4D5543056002E04B4D056000BFBE
:101B100000BF444D6D6805F0F0010909484D6B5C4C
:101B20000568DD4045603F4D6D6805F4E061090AD8
:101B3000434D6B5C4568DD4085603A4D6D6805F44A
:101B40006051C90A3E4D6B5C4568DD40C560354D4E
:101B50006D6805F44041890B3A4D6B5CC568B5FB77
:101B6000F3F5056130BD29B12E4A526902432D4B70
:101B70005A6104E02B4A526982432A4B5A617047EA
:101B800029B1284A92690243264B9A6104E0254A0A
:101B900092698243234B9A61704729B1214AD269E5
:101BA0000243204BDA6104E01E4AD26982431D4B96
:101BB000DA61704729B11B4AD2680243194BDA60D7
:101BC00004E0184AD2688243164BDA60704729B1A4
:101BD000144A12690243134B1A6104E0114A126954
:101BE0008243104B1A6170471249403908607047B0
:101BF0000F49C86470470B49C87170470948406A6B
:101C000040F0807007494862704701460020054A4D
:101C100092680A400AB1012000E0002070470149A3
:101C200088727047001002400000FFF8FFFFF6FEC8
:101C3000000042428004424200127A0000093D0046
:101C400090000020A000002010B50446FE48844209
:101C500008D10121C014FFF7ADFF0021E014FFF708
:101C6000A9FFC4E0B4F1804F08D101210846FFF775
:101C7000AEFF00210120FFF7AAFFB8E0F34884423D
:101C800008D101210220FFF7A2FF00210220FFF767
:101C90009EFFACE0EE48844208D101210420FFF70A
:101CA00096FF00210420FFF792FFA0E0E94884425C
:101CB00008D101210820FFF78AFF00210820FFF743
:101CC00086FF94E0E448844208D101211020FFF708
:101CD0007EFF00211020FFF77AFF88E0DF48844272
:101CE00008D101212020FFF772FF00212020FFF7FB
:101CF0006EFF7CE0DA48844208D101214014FFF7EE
:101D000059FF00216014FFF755FF70E0D548844269
:101D100009D10121C804FFF74DFF00214FF4002035
:101D2000FFF748FF63E0D048844209D1012108054C
:101D3000FFF740FF00214FF48010FFF73BFF56E014
:101D4000CA48844209D101214805FFF733FF002129
:101D50004FF40010FFF72EFF49E0C548844208D138
:101D600001214020FFF733FF00214020FFF72FFF24
:101D70003DE0C048844208D101218020FFF727FFC1
:101D800000218020FFF723FF31E0BB48844208D1C7
:101D900001218015FFF71BFF0021A015FFF717FF9A
:101DA00025E0B648844209D101210804FFF702FF6B
:101DB00000214FF48030FFF7FDFE18E0B048844268
:101DC00009D101214804FFF7F5FE00214FF400304E
:101DD000FFF7F0FE0BE0AB48844208D101218804F4
:101DE000FFF7E8FE00214FF48020FFF7E3FE10BD6F
:101DF00000220288944B98420ED0994B98420BD007
:101E0000B0F1804F08D0914B984205D0904B98424A
:101E100002D0904B984204D14FF68F731A404B88F2
:101E20001A438D4B984207D08C4B984204D04FF602
:101E3000FF431A40CB881A4302808B8883850B8826
:101E40000385814B98420BD0854B984208D08B4B31
:101E5000984205D08A4B984202D08A4B984201D1D1
:101E60000B7A038601238382704770B50024002219
:101E70000023058C4FF6FE7635400584028C83885E
:101E8000048B4FF68F752C40B51E2C400D882C43CB
:101E9000751E2A400D892A434D882A436A4DA8425F
:101EA0000BD06F4DA84208D0744DA84205D0744D98
:101EB000A84202D0734DA84213D14FF6F7752A40BD
:101EC0004D892A434FF6FB752A408D882A434FF6E9
:101ED000FF652B404FF6FF552B408D892B43CD8955
:101EE0002B4383800483CD888586028470BD70B5C2
:101EF000002400220023058C4FF6EF763540058440
:101F0000028C8388048B48F6FF752C404FF6FF4502
:101F10002C400D884FF6FF7606EA05252C434FF638
:101F2000DF752A400D8906EA05152A434D8806EA21
:101F300005152A43444DA84202D0494DA8421DD15F
:101F40004FF67F752A404D894FF6FF7606EA051554
:101F50002A434FF6BF752A408D8806EA05152A43A5
:101F60004FF6FF352B404FF2FF752B408D8906EA67
:101F700085052B43CD8906EA85052B4383800483A1
:101F8000CD880587028470BD70B50024002200232F
:101F9000058C4FF6FF6635400584028C8388848B60
:101FA0004FF68F752C404FF6FC752C400D882C4356
:101FB0004FF6FF552A400D894FF6FF7606EA0525B4
:101FC0002A434D8806EA05252A431F4DA84202D020
:101FD000234DA8421DD14FF2FF752A404D894FF67F
:101FE000FF7606EA05252A434FF6FF352A408D88FD
:101FF00006EA05252A434EF6FF752B404DF6FF7580
:102000002B408D8906EA05152B43CD8906EA051577
:102010002B4383808483CD888587028470BD70B50F
:10202000002200230024058C4EF6FF7635400584FF
:10203000038C8488828B48F6FF752A404FF6FF4553
:102040002A400D8820E00000002C014000040040E0
:1020500000080040000C0040001000400014004048
:1020600000340140004C0140005001400054014048
:1020700000180040001C00400020004000400140CB
:1020800000440140004801404FF6FF7606EA05256E
:102090002A434DF6FF752B400D8906EA05352B4383
:1020A0004D8806EA05352B43FA4DA84202D0FA4D79
:1020B000A84208D14BF6FF752C408D894FF6FF766C
:1020C00006EA85152C4384808283CD88A0F8405091
:1020D000038470BD828B4FF2FF331A408283828B60
:1020E0004FF6FF7303EA01231A4382837047F0B56A
:1020F0000C461546002200210026078C4EF6FF7C78
:1021000007EA0C070784828B018C4FF6FF7707EAFA
:10211000043640F6FF473A404FF6FF7707EA0527B7
:102120003A434FF6FF7707EA03373A43D94FB842AD
:102130000ED0D94FB8420BD0B0F1804F08D0D74F56
:10214000B84205D0D64FB84202D0D64FB84206D1D9
:102150004DF6FF77394046F48057394305E047F69E
:10216000FF57394044F48057394382830184F0BDDE
:10217000828B4FF6F3731A408283828B0A438283E9
:102180007047F0B50C461546002200210026078C4A
:102190004FF6FF6C07EA0C070784828B018C4FF621
:1021A000FF7707EA04264FF60C773A404FF6FF77A1
:1021B00007EA03172F433A43B64FB8420ED0B64F43
:1021C000B8420BD0B0F1804F08D0B44FB84205D020
:1021D000B34FB84202D0B34FB84206D14FF6FF57C3
:1021E000394046F48077394305E04FF2FF573940D4
:1021F00044F48077394382830184F0BD028B4FF22F
:10220000FF331A400283028B4FF6FF7303EA012368
:102210001A4302837047F0B50C4615460022002190
:102220000026078C4FF6EF7C07EA0C070784028B29
:10223000018C4FF6FF7707EA041640F6FF473A4055
:102240004FF6FF7707EA03373A434FF6FF7707EA7F
:1022500005273A438F4FB8420ED08F4FB8420BD06C
:10226000B0F1804F08D08D4FB84205D08C4FB842A6
:1022700002D08C4FB84206D14FF6DF77394046F096
:102280001007394305E04FF65F77394044F01007F7
:10229000394302830184F0BD028B4FF6F3731A4079
:1022A0000283028B0A4302837047F0B50C46154641
:1022B00000220021068C4FF6FE773E400684028BFA
:1022C000018C4FF60C7632407E1C06EA03162E4334
:1022D0003243704EB0420ED06F4EB0420BD0B0F1D0
:1022E000804F08D06D4EB04205D06D4EB04202D046
:1022F0006C4EB04206D14FF6FD76314044F00106F7
:10230000314305E04FF6F576314044F001063143A4
:1023100002830184F0BD70B505460C465D488542D8
:102320000ED05D4885420BD0B5F1804F08D05B4898
:10233000854205D05A48854202D05A48854200D18C
:1023400000E000BF208850B92389A2886188284610
:10235000FFF7ABFFE1882846FFF79EFF25E02088C6
:1023600004280AD12389A28861882846FFF753FFF1
:10237000E1882846FFF742FF17E0208808280AD1A5
:102380002389A28861882846FFF7FBFEE18828465A
:10239000FFF7EEFE09E02389A28861882846FFF74F
:1023A000A6FEE1882846FFF795FE70BD2DE9F041B5
:1023B00005460C4600260127608808B9022600E081
:1023C0000026A088012801D1022700E001272088EB
:1023D000A0B92389A28861882846FFF766FFE188B3
:1023E0002846FFF759FF23893A4631462846FFF72A
:1023F00012FFE1882846FFF701FF13E02389A28836
:1024000061882846FFF707FFE1882846FFF7F6FEB8
:1024100023893A4631462846FFF747FFE188284698
:10242000FFF73AFFBDE8F0810A884B881A438B8892
:102430001A43CB881A430B891A434B891A438B8959
:102440001A43A0F8442070474FF6FF7181800021A5
:102450000180C1804180017270470021018041806C
:102460008180C180018141818181C18170470021CA
:1024700001804180012181800021C180018170475C
:102480000021018041808180C18001814181818161
:1024900070470000002C014000340140000400405F
:1024A00000080040000C004021B1028842F0010207
:1024B000028004E002884FF6FE731A4002807047E3
:1024C00031B1B0F8442042F40042A0F8442005E0C5
:1024D000B0F84420C2F30E02A0F8442070471AB1AD
:1024E00083890B43838102E083898B438381704717
:1024F0008182704741EA0203A0F8483070471AB160
:1025000083890B43838102E083898B4383817047F6
:1025100001894FF6F8721140018170470A46002187
:1025200001894FF68F73194011430181704730B50F
:1025300004460D4629462046FFF7F0FF208940F06B
:102540000700208130BD2DE9F04104460D461646B6
:102550001F46602D06D13B46012231462046FFF73B
:102560005AFE05E03B46012231462046FFF79DFE1C
:1025700029462046FFF7D2FF208940F0070020813E
:10258000BDE8F08130B50C4600210189C9B24FF693
:10259000FF7505EA0325154325432943018130BD15
:1025A0002DE9F04105460E4617469846002443465D
:1025B0003A4631462846FFF7E5FF2C894FF6F8707A
:1025C000044044F007044FF68F70044044F0700458
:1025D0002C81BDE8F081F0B504460D4616461F4635
:1025E0003B46324629462046FFF7CCFF208940F47F
:1025F00080402081F0BD0185828270470A4600211B
:1026000001884FF68F731940114301807047F0B570
:102610000C4615461E460021002200230189028B2C
:10262000038C4FF6F877394021434FF6FC473A4088
:1026300040F201173A434FF6DD773B404FF6FF7704
:1026400007EA06172F433B43018102830384F0BD51
:102650000A460021018B4FF68F7319401143018305
:1026600070470A460021018B48F6FF7319404FF668
:10267000FF7303EA02231943018370470A460021CE
:10268000818B4FF68F7319401143818370470A463F
:102690000021818B48F6FF7319404FF6FF7303EA60
:1026A000022319438183704721B1028842F08002DE
:1026B000028004E002884FF67F731A400280704760
:1026C00021B1828842F00402828004E082884FF6C1
:1026D000FB731A408280704721B1828842F0080261
:1026E000828004E082884FF6F7731A408280704738
:1026F00021B1828842F00102828004E082884FF694
:10270000FE731A40828070470A460021018B4FF603
:10271000F77319401143018370470A460021018B6A
:102720004FF2FF7319404FF6FF7303EA0223194378
:10273000018370470A460021818B4FF6F7731940D9
:102740001143818370470A460021818B4FF2FF734A
:1027500019404FF6FF7303EA022319438183704740
:102760000A460021018B4FF6FB7319401143018388
:1027700070470A460021018B4FF6FF3319404FF690
:10278000FF7303EA02231943018370470A460021BD
:10279000818B4FF6FB7319401143818370470A46C2
:1027A0000021818B4FF6FF3319404FF6FF7303EA88
:1027B00002231943818370470A460021018B4FF69B
:1027C0007F7319401143018370470A460021018B32
:1027D000C1F30E014FF6FF7303EA0223194301838D
:1027E00070470A460021818B4FF67F7319401143D1
:1027F000818370470A460021818BC1F30E014FF699
:10280000FF7303EA02231943818370470A460021BC
:10281000018C4FF6FD7319401143018470470A463D
:102820000021018C4FF6F773194011430184704762
:102830000A460021018C4FF6DF7319404FF6FF73F3
:1028400003EA02131943018470470A460021018CF0
:102850004FF67F7319404FF6FF7303EA02131943D3
:10286000018470470A460021018C4FF6FF5319403E
:102870004FF6FF7303EA02231943018470470A46A7
:102880000021018C4FF2FF7319404FF6FF7303EAEA
:1028900002231943018470470A460021018C4DF63A
:1028A000FF7319404FF6FF7303EA023319430184A3
:1028B000704730B5002301248C40A3B2048C9C43A4
:1028C0000484048C02FA01F5ADB22C43048430BDBB
:1028D00030B5002304248C40A3B2048C9C430484B0
:1028E000048C02FA01F5ADB22C43048430BD70B5FE
:1028F0000346002000241846183001258D40ACB254
:102900001D8CA5431D8409B1082909D100EB610084
:10291000056825F0700505600568154305600EE043
:102920000D1FC5F34E052844056825F4E0450560F4
:1029300005684FF6FF7606EA02263543056070BD4E
:1029400021B1028842F00202028004E002884FF6C0
:10295000FD731A400280704721B1028842F00402E0
:10296000028004E002884FF6FB731A400280704731
:1029700021B1828842F08002828004E082884FF692
:102980007F731A408280704702884FF6F7731A40AF
:10299000028002880A430280704782884FF68F7354
:1029A0001A40828082880A438280704702894FF6EB
:1029B000F8731A40028102890A4302817047028932
:1029C0004FF67F731A40028102890A4302817047E1
:1029D0008184704781857047818670470187704781
:1029E00081877047A0F84010704702884FF6FF4378
:1029F0001A40028002880A43028070470146888E8E
:102A000070470146088F70470146888F704701461E
:102A1000B1F8400070470146888C70470146088D28
:102A2000704702460020138A0B400BB1012000E0E2
:102A300000207047CA430282704730B5024600202A
:102A400000230024158A05EA0103958905EA01049B
:102A500013B10CB1012000E0002030BDCA43028256
:102A60007047000010B50446FB48844209D101219B
:102A70008803FFF79FF800214FF48040FFF79AF892
:102A800032E0F648844209D101214804FFF79FF85B
:102A900000214FF40030FFF79AF825E0F048844217
:102AA00009D101218804FFF792F800214FF480201A
:102AB000FFF78DF818E0EB48844209D10121C804E2
:102AC000FFF785F800214FF40020FFF780F80BE0B6
:102AD000E548844208D101210805FFF778F8002174
:102AE0004FF48010FFF773F810BD2DE9F04786B062
:102AF00005460E460024A24600BFA1460027B08925
:102B000000B100BF2F462C8A4CF6FF700440F088BD
:102B100004432C82AC894EF6F3100440B08831890E
:102B20000843718908430443AC81AC8A4FF6FF40E7
:102B30000440B0890443AC8201A8FEF7B4FFC64844
:102B4000874202D1DDF810A001E0DDF80CA0A889D1
:102B500000F4004040B10AEBCA0000EB0A103168F3
:102B60004900B0FBF1F807E00AEBCA0000EB0A10DD
:102B700031688900B0FBF1F86420B8FBF0F0040183
:102B80002009642101FB1089A88900F4004040B1AC
:102B9000322000EBC900B0FBF1F000F00700044365
:102BA00008E0322000EB09106421B0FBF1F000F0E6
:102BB0000F0004432C8106B0BDE8F0874FF4165196
:102BC000016000218180C18001810C2141810021AF
:102BD0008181704710B502460020108A4FF2FF0332
:102BE00018400B884C8823438C882343CC8823438C
:102BF0001843108210BD0021018041808180C18076
:102C0000704721B1828942F40052828104E08289B6
:102C10004DF6FF731A4082817047F0B503460024D9
:102C200000260025002040F66A17B94200D100BFF7
:102C30001846C1F3421401F01F06012707FA06F5F2
:102C4000012C01D10C3004E0022C01D1103000E045
:102C500014301AB107682F43076002E00768AF43DA
:102C60000760F0BD1AB1838A0B43838202E0838A36
:102C70008B4383827047028A4FF6F0731A400282B8
:102C8000028A0A430282704782894FF2FF731A4018
:102C9000828182890A438281704721B1828942F010
:102CA0000202828104E082894FF6FD731A4082811C
:102CB0007047028A4FF6DF731A400282028A0A4383
:102CC0000282704721B1028A42F48042028204E00B
:102CD000028A4BF6FF731A4002827047C1F3080262
:102CE0008280704701468888C0F308007047818958
:102CF00041F0010181817047028BD2B20283028BC5
:102D000042EA012202837047028B02F47F4202836F
:102D1000028B0A430283704721B1828A42F020026B
:102D2000828204E0828A4FF6DF731A408282704703
:102D300021B1828A42F01002828204E0828A4FF638
:102D4000EF731A408282704721B1828A42F00802F2
:102D5000828204E0828A4FF6F7731A4082827047BB
:102D600021B1828942F40042828103E08289C2F368
:102D70000E028281704721B1828A42F4006282820F
:102D800004E0828A4FF2FF731A4082827047828A7F
:102D90004FF6FB731A408282828A0A43828270470E
:102DA00021B1828A42F00202828204E0828A4FF6D6
:102DB000FD731A408282704702460020B1F5007F01
:102DC00000D100BF13880B400BB1012000E00020B0
:102DD000704701F40072B2F5007F00D100BFCA4312
:102DE0000280704770B502460024002300250020B1
:102DF00040F66A16B14200D100BFC1F3421501F09E
:102E00001F03012606FA03F3012D02D196893340F0
:102E100006E0022D02D1168A334001E0968A334043
:102E20000C12012606FA04F41688344013B10CB1D2
:102E3000012000E0002070BD10B50022002340F604
:102E40006A14A14200D100BF0A1201249440A3B227
:102E5000DC43048010BD0000003801400044004005
:102E600000480040004C00400050004030B5014692
:102E7000B1F1807F01D3012030BD21F07F40401EA1
:102E80004FF0E022506150170F22002807DA130795
:102E90001D0E804B00F00F04241F1D5503E0130787
:102EA0001C0E7D4B1C5400BF00204FF0E0229061AF
:102EB000072010610020DFE710B56FF00400FDF778
:102EC0009EFB764800687649B0FBF1F075490870C2
:102ED0000846007800EB4001C1EBC0104FF6FF71CF
:102EE00001EAC0007049088010BD01466D4A1278A1
:102EF0004A434FF0E0235A6100229A611A46126950
:102F000042F001021A6100BF4FF0E022106900F0A8
:102F100001021AB100F48032002AF5D04FF0E0220D
:102F2000126922F001024FF0E0231A6100229A6137
:102F3000704701465C4A12884A434FF0E0235A61C9
:102F400000229A611A46126942F001021A6100BF1A
:102F50004FF0E022106900F001021AB100F4803253
:102F6000002AF5D04FF0E022126922F001024FF062
:102F7000E0231A6100229A61704770B50446482028
:102F8000FFF774FF002508E000BF4FF0E020006964
:102F900000F480300028F8D06D1CA542F4D34FF027
:102FA000E020006920F001004FF0E021086170BDD1
:102FB00070B504463D48FFF759FF002508E000BF03
:102FC0004FF0E020006900F480300028F8D06D1C3C
:102FD000A542F4D34FF0E020006920F001004FF04B
:102FE000E021086170BD2D4800683149B0FBF1F067
:102FF000401E4FF0E02148610020886106200861F2
:103000000846006920F001000861704700B9704768
:103010002849086000214FF0E022916111460969BA
:1030200041F00101116100BF224909680029FBD16B
:103030004FF0E021096921F001014FF0E022116118
:1030400000BFE4E700B970474FF47A714143194A71
:10305000116000214FF0E02291611146096941F0B1
:103060000101116100BF134909680029FBD14FF02C
:10307000E021096921F001014FF0E022116100BF58
:10308000E1E70C48006820B10A480068401E094981
:103090000860704718ED00E000E400E07C000020CC
:1030A00000127A00A4000020A600002040190100B0
:1030B00040420F00A800002000BF7047C2B2704B12
:1030C0001A8000BF6E4A121F128802F04002002AC6
:1030D000F8D070476B49088000BF6A49091F09880A
:1030E00001F040010029F8D0704710B586B00446C1
:1030F00001210420FEF744FD01214804FEF74DFDA7
:103100000420ADF8140003208DF8160018208DF867
:10311000170005A95C48FEF711FA0820ADF8140065
:1031200004208DF8170005A95748FEF707FA262056
:103130008DF8000000208DF8010001208DF80200BC
:103140008DF803006846FDF710FA01940020ADF8F1
:103150000800ADF80A00ADF80C00ADF810000C2026
:10316000ADF80E0001A94748001FFFF7BEFC012281
:1031700040F225514348001FFFF74FFD0121414810
:10318000001FFFF73EFD06B010BD70473F480078B6
:10319000F8B13F4800685A281BD000203B4A107005
:1031A0003B480068012806DB39480068082802DC33
:1031B000374801780BE036480068412807DB34487F
:1031C0000068482803DC324800784038C1B208461D
:1031D00070472F4800685A2802D101202B4A1070EE
:1031E0000020F5E72DE9F0412A480068002801DDBC
:1031F000002406E027480068002801DA022400E0E5
:10320000012425480068002801DD002506E0224849
:103210000068002801DA022500E001254FF08E4108
:103220001E4800680BF0CEF807460BF04BFA86B24A
:10323000FF2001F0B3FCFE2001F0B0FC15490F683F
:10324000002F01DB394600E07942C8B201F0A6FC4C
:10325000204601F0A3FC10490F68002F01DB39461E
:1032600000E07942C8B201F099FC284601F096FCD2
:10327000301201F093FCF0B201F090FCBDE8F08157
:10328000044800400444004000080140B40000200D
:10329000B0000020040000200800002048000020AA
:1032A000A34A0A400243A34B1A6070470146072312
:1032B00023EA010212029F4B1B1D18684FF6FF0301
:1032C00018409D4B184310439A4B1B1D18607047C4
:1032D0002DE9F0410746884614461D462846FFF76B
:1032E000E5FFC5F1040007FA00F60F20284100EAC7
:1032F0000800064306F00F06E21704EBD2625211F3
:10330000920002F1E022D2F800212146E31704EBFB
:10331000D3635B11A4EB431C012303FA0CF31A43A0
:103320002046E31704EBD3635B119B0003F1E0231A
:10333000C3F800218148005D40EA06107F49085526
:10334000BDE8F08170B504460B46CE1701EB9676CA
:10335000C6F38700CE1701EB9676B610A1EB860672
:10336000B606350E764B9B6943F00103744EB3618C
:103370004FEAB63353F820300F26AE40B343714EB8
:1033800046F82030334653F8203004FA05F61E4341
:103390006C4B43F820606C4B1B6801268E40334316
:1033A000694E336002F0010343B1674B0C331B6875
:1033B00001268E403343644E0C36336002F0020324
:1033C00043B1614B08331E6801238B401E435E4BA3
:1033D00008331E6070BD00B5002059490861C860FF
:1033E0001420486100208861C8610846006840F0E8
:1033F0000100086008464068544908405049486048
:1034000008460068524908404D490860084600686F
:1034100020F4802008600846406820F4FE004860E0
:103420000020886000214FF00060FFF739FF00BDE9
:1034300010B540480830006840F004003D490831AC
:1034400008603F48C06940F080503D49C86141482C
:10345000406840F480703F4948600846006840F08A
:10346000040008600846006840F002000860FCF7AD
:1034700023FF10BD3048001D2E49091D086070470C
:10348000014649062E4A926942F001022C4B9A618C
:103490002C4A083A526822F0E0622A4B083B5A60F4
:1034A0001A4652680A435A60704730B504460025F0
:1034B000FFF791FF2248006840F4803020490860FF
:1034C00000BF1F480068400C0028FAD04FF480600D
:1034D0001B494860A01EC4B20846406840EA8440C8
:1034E00048600846406840F4803048601A480068E8
:1034F00040F03200184908601148006840F08070C0
:103500000F49086000BF0E480068400E0028FAD03E
:103510000B48406840F002000949486005E008484F
:103520004068C0F3870505F00305022DF7D130BDD3
:1035300080FFFF1F08ED00E00000FA0500E400E056
:103540000010024008000140000401400000FFF8A4
:10355000FFFFF6FE007000400020024008B5012188
:103560000820FEF70DFB4FF42040ADF800001020BE
:103570008DF8030003208DF8020069460C48FDF722
:10358000DDFF08BD18B900210A4A11600FE00A49A1
:103590000968491C084A1160814208D10549096837
:1035A000C943064AC2F8B4110021034A11607047AA
:1035B000000C0140B4812142B8000020008021426B
:1035C00008B501210820FEF7DBFA4FF4A040ADF862
:1035D000000048208DF8030069465248FDF7AEFF11
:1035E00008BD01465048006828B950480088401C72
:1035F0004E4A108002E000204C4A10804A48006881
:1036000028B94B48007810B90120494A1070494840
:103610000078B0B946480078012807D146480078BC
:10362000401C454A10700120424A10704248007800
:10363000022806D10020404A1070404A1080022023
:10364000704739480068012804D10020384A1070BA
:10365000384A10703848007801281CD13748008853
:10366000401C364A10801046008888420ADD2F48E8
:103670000088884206DA00202F4A10702F4A1080F6
:103680000120DDE729480088884204DD00202A4A1D
:1036900010702A4A10800020D2E72948007838B1FB
:1036A0002148006820B90020254908700120704792
:1036B0001D480068012801D1214908700020F6E763
:1036C0002048008840B91848006828B91E4800887A
:1036D000401C1D49088002E000201B4908801A4850
:1036E0000088C82807DD01201649088000201649F7
:1036F00008800120704713480088012802D100206B
:10370000104908800020F5E710B507F0D5FE01202C
:103710000E49087000F087F800200D49087008462F
:10372000007810BD000C014038812142C200002009
:10373000BC000020BD000020BE000020C000002012
:10374000C4000020C8000020C600002000000020A7
:10375000CA00002010B50A461AB10123FE4C2360AE
:1037600002E00023FC4C2360002117E00023FA4C08
:10377000241F236000F0800323B10123F64C08349A
:10378000236003E00023F44C083423600123F24C4F
:10379000241F23604306180E4B1CD9B20829E5DB11
:1037A0000123ED4C236010BD30B500241CE004F172
:1037B000B001C8B20021FFF7CDFF00210846FFF796
:1037C000C9FF00211020FFF7C5FF002508E0E349ED
:1037D00001EBC501085D0121FFF7BCFF681CC5B204
:1037E000802DF4DB601CC4B2082CE0DB30BD00B5DA
:1037F00000218D20FFF7AEFF00211420FFF7AAFF64
:103800000021AF20FFF7A6FF00BD00B500218D20ED
:10381000FFF7A0FF00211020FFF79CFF0021AE2042
:10382000FFF798FF00BD30B500240CE0002506E04E
:103830000020CA4901EBC5010855681CC5B2802D9E
:10384000F6DB601CC4B2082CF0DBFFF7ADFF30BD27
:10385000F0B5144600267F2801DC3F2900DDF0BDCD
:103860000B46CF1701EB5777FF10C7F10707FAB2E6
:10387000CF1701EB5777FF10A1EBC707FDB2C5F1DA
:1038800007070123BB40DEB24CB1B44B03EBC003CE
:103890009B5C3343B14F07EBC007BB5408E0AF4B11
:1038A00003EBC0039B5CB343AC4F07EBC007BB54B7
:1038B00000BFD4E72DE9F04F80460C4615461E4662
:1038C000A346A5F12000C5B200273EE00C2E07D18B
:1038D00005EB4500A24901EB800010F8079004E0D9
:1038E000A04800EB051010F807904FF0000A26E002
:1038F00009F0800028B121464046099AFFF7A8FF49
:1039000009E0099808B9012000E00020024621469C
:103910004046FFF79DFF4FEA49604FEA1069601C7F
:10392000C4B2A4EB0B00B04205D15C4608F1010023
:1039300000F0FF0806E00AF1010000F0FF0ABAF10A
:10394000080FD5DB00BF781CC7B2B742BEDBBDE8AD
:10395000F08F10B50246012000E050430B1EA1F18C
:103960000104E1B2F9D110BD2DE9FF4F81B0074646
:1039700091461E460E9D4FF0000A002439E0301B90
:10398000401EC1B20A20FFF7E4FFB9FBF0F00A21A4
:10399000B0FBF1F201FB1208BAF1000F16D1701E54
:1039A000A04213DDB8F1000F0ED10120AB4605EBAC
:1039B000DB71491001FB04710090C8B22B46202234
:1039C0000299FFF777FF12E04FF0010A0120AB46A2
:1039D00005EBDB71491001FB04710090C8B208F1DE
:1039E0003001CAB22B460299FFF764FF00BF601C8A
:1039F000C4B2B442C3DB05B0BDE8F08F2DE9FF4F80
:103A000081B00746914698460E9C4FF0000A00256B
:103A100049E0A8EB0500401EC1B21020FFF799FF56
:103A2000B9FBF0F000F00F06BAF1000F15D1A8F1C4
:103A30000100A84211DD76B90120A34604EBDB7139
:103A4000491001FB05710090C8B22346202202995B
:103A5000FFF730FF25E04FF0010A0A2E10DA0120AF
:103A6000A34604EBDB71491001FB05710090C8B25D
:103A700006F13001CAB223460299FFF71BFF0FE09F
:103A80000120A34604EBDB71491001FB0571009096
:103A9000C8B206F13701CAB223460299FFF70AFFFE
:103AA00000BF681CC5B24545B3DB05B0BDE8F08F6B
:103AB0002DE9FF4F83B0074690461E46109D00201B
:103AC00002900190002140460AF048FE03D288F09F
:103AD000004801200290244940460AF073FE8346C4
:103AE0000AF0F0FD1FFA80FA002477E0301B401E38
:103AF000C1B20A20FFF72DFFBAFBF0F00A21B0FB9C
:103B0000F1F201FB1209019880BB701EA0423FDD5B
:103B1000B9F1000F3AD1301B801EC1B20A20FFF765
:103B200018FFBAFBF0F00A21B0FBF1F201FB120022
:103B3000E8B1029801281AD1AB4605EBDB714910B8
:103B400001FB04710090C8B22B462D220499FFF7A7
:103B5000B1FE0020029018E0B481214294030020BD
:103B6000B2EB000826F000080000204110E0012020
:103B7000AB4605EBDB71491001FB04710090C8B244
:103B80002B4620220499FFF795FE25E001200190A5
:103B9000701EA0420FD10120AB4605EBDB7149102E
:103BA00001FB04710090C8B22B462E220499FFF746
:103BB00081FE601CC4B20120AB4605EBDB714910ED
:103BC00001FB04710090C8B209F13001CAB22B4662
:103BD0000499FFF76FFE00BF601CC4B2B44285DBDE
:103BE00007B0BDE8F08F78B505460E46144618E0DC
:103BF0007A2D03DD002506F11000C6B23A2E04DD51
:103C0000002005460646FFF70EFE012000902278B0
:103C10000C2331462846FFF74DFE05F10800C5B2DA
:103C2000641C20780028E3D178BD08B5012110205C
:103C3000FDF7A6FF01210846FDF7A2FF4FF47040F3
:103C4000ADF8000010208DF8030002208DF802006E
:103C500069464048FDF772FC0120FDF7C8FD0020D1
:103C6000FDF7FBFE0020FCF71CFF0020FDF7BFFD69
:103C70000020394908606420FFF75BF901203749CB
:103C8000C1F8B8010021AE20FFF764FD0021D52066
:103C9000FFF760FD00215020FFF75CFD0021A82008
:103CA000FFF758FD00213F20FFF754FD0021D320EE
:103CB000FFF750FD00210846FFF74CFD0021402092
:103CC000FFF748FD00218D20FFF744FD002114205F
:103CD000FFF740FD00212020FFF73CFD00210220DE
:103CE000FFF738FD0021A120FFF734FD0021C0209F
:103CF000FFF730FD0021DA20FFF72CFD0021122014
:103D0000FFF728FD00218120FFF724FD0021EF208F
:103D1000FFF720FD0021D920FFF71CFD0021F12035
:103D2000FFF718FD0021DB20FFF714FD00213020F4
:103D3000FFF710FD0021A420FFF70CFD0021A620B5
:103D4000FFF708FD0021AF20FFF704FDFFF76BFD33
:103D500008BD0000000C0140B881214200802142D2
:103D6000002000E0401C0A28FCDB704700B587B04B
:103D700001214FF40470FDF703FF4FF40040FDF7FD
:103D800063FE0120ADF8040000208DF8070001A9B2
:103D9000FE48FDF7D3FBFE48FCF750FC00200290E4
:103DA0008DF80C008DF80D004FF460200490002079
:103DB000059001208DF8180002A9F548FCF765FC74
:103DC0000121F348FCF78DFCF148FCF7ACFC00BF87
:103DD000EF48FCF7ADFC0028FAD1ED48FCF7B2FC47
:103DE00000BFEB48FCF7B3FC0028FAD107B000BDD8
:103DF00010B50446072301222146E548FCF7DDFC07
:103E00000121E348FCF7ADFC00BF0221E048FCF7CC
:103E100019FE0028F9D0DE48FCF736FD10BD2DE96B
:103E2000FE4FDC49086A0AF0A1FA4FF06632DA4B1D
:103E3000CDE9000109F0C0FF80460022D74B09F010
:103E4000BBFF06460022D64B09F0B6FF044600220F
:103E5000D44B09F0D7FD824609F068FF0290029822
:103E6000BDE8FE8F2DE9F84FCA49C86B0AF07EFA0B
:103E700080464FF06632C84B09F09EFF064600228E
:103E8000C84B09F0BFFD044609F0CEFC0090009835
:103E90000AF06CFA0646C44AC44B0AF08BF8804616
:103EA000C34AC44B09F0AEFD04460022C24B09F0E0
:103EB000EDFC824609F0B8FC0090C04900980AF079
:103EC00081FC04460AF0E2FBBDE8F88F00B587B03C
:103ED00001214FF40770FDF753FE4FF40040FDF74A
:103EE000B3FDFF20ADF8040000208DF8070001A904
:103EF000B348FDF723FB0220ADF8040000208DF845
:103F0000070001A9A148FDF719FB1F20ADF8040027
:103F100000208DF8070001A9AA48FDF70FFB9C4877
:103F2000FCF78CFB002002908DF80C008DF80D0042
:103F30004FF4602004900020059001208DF81800B7
:103F400002A99348FCF7A1FB01219148FCF7C9FBAA
:103F50008F48FCF7E8FB00BF8D48FCF7E9FB002821
:103F6000FAD18B48FCF7EEFB00BF8948FCF7EFFB6A
:103F70000028FAD107B000BD10B592B0FDF792FC51
:103F80004FF48030FDF7AEFCFDF7EBFC0446012C4E
:103F900031D11020FCF7A8FF0220FCF791FF002090
:103FA000FDF725FD0020FDF734FDA002FDF728FDFB
:103FB0004FF4E0112004FDF7FDFC0120FDF706FDA4
:103FC00000BF3920FDF7B1FC0028FAD00220FDF730
:103FD00000FD00BFFDF706FD0828FBD1012144F2DA
:103FE0001D20FDF7CDFD4FF40040FDF72DFD012113
:103FF0000846FDF7B8FD01214FF40770FDF7C0FD3D
:104000004FF40040FDF720FD0120ADF83000002006
:104010008DF833000CA95D48FDF790FAFF20ADF84C
:10402000300000208DF833000CA96548FDF786FAB2
:104030000220ADF8300000208DF833000CA9534861
:10404000FDF77CFA1F20ADF8300000208DF833001A
:104050000CA95C48FDF772FA5B48FCF779FD4C4807
:104060004C30019059480290002003905020049059
:104070000020059080200690400007908000089066
:104080002020099000020A9000200B9001A94E48C0
:10409000FCF700FE3E48FCF7D1FA0120FCF7B2FC29
:1040A00000200D9001208DF838008DF839004FF474
:1040B00060200F900020109010208DF844000DA972
:1040C0003348FCF7E2FA0623012200213048FCF7CE
:1040D00074FB0623022201212D48FCF76EFB062308
:1040E000032202212A48FCF768FB0623042203214D
:1040F0002748FCF762FB0623052204212448FCF72D
:104100005CFB06231A4605212148FCF756FB0623D3
:10411000072219461E48FCF750FB062308220721F8
:104120001B48FCF74AFB0623092208211848FCF724
:1041300044FB06230A2209211548FCF73EFB06230F
:104140000B220A211248FCF738FB06230C220B2114
:104150000F48FCF732FB06230D220C210C48FCF71C
:104160002CFB06230E220D210948FCF726FB062313
:104170000F220E210648FCF720FB062310221146D1
:104180000348FCF71AFB0121014821E0000C014023
:10419000002401403408002066660A4000002640E2
:1041A000000059400000B040E17A14AE47E1F63F0C
:1041B00022FDF675E09C713F000039400000C842C6
:1041C0000008014000100140080002409407002050
:1041D000FCF792FA01214A48FCF783FA4848FCF7B9
:1041E000A2FA00BF4648FCF7A3FA0028FAD14448D7
:1041F000FCF7A8FA00BF4248FCF7A9FA0028FAD158
:1042000001213F48FCF7ADFA01213E48FCF76DFD66
:1042100012B010BD884200DA0846904200DD104618
:1042200070472DE9F0470026002426E0002507E02E
:10423000354800EB451030F814000644681CC5B240
:10424000052DF5DB30460AF05DFA82462F490AF06B
:1042500027F981460AF036FA1FFA80F840F6FF7215
:1042600000214046FFF7D6FF07460AF063FA2849C7
:1042700041F824000026601CC4B2102CD6DBBDE837
:10428000F08703468B4201DB1046704782F0010045
:10429000FBE710B5034600200446A34202DB8B4235
:1042A00000DC10BD8B4203DD934201DC0120F8E706
:1042B000934201DD0220F4E700BFF2E710B50346A8
:1042C00000200446A34202DB8B4200DC10BD8B427F
:1042D00003DD934201DC0120F8E7934201DD022077
:1042E000F4E700BFF2E710B504468C4203DB9442CA
:1042F00001DCD8B210BD0BB90120FBE70020F9E7C3
:104300000024014008000240940700200000A04063
:10431000340800207FB505460C4601210220FDF738
:104320003CFCADF80850ADF804400020ADF80A00A0
:10433000ADF8060001A90D48FDF75AFD012211460E
:104340000A48FEF7CCF81D208DF8000001208DF8FA
:1043500003008DF8010003208DF802006846FCF789
:1043600004F901210148FEF79FF87FBD00040040D9
:1043700030B589B005460C4601210820FDF700FC48
:1043800001210420FDF709FC4FF47070ADF8200006
:1043900018208DF8230003208DF8220008A9224858
:1043A000FDF7CCF8ADF81850ADF814400020ADF88A
:1043B0001A00ADF8160005A91C48FDF719FD60208C
:1043C000ADF804000120ADF806000020ADF80A00A9
:1043D000ADF80C0001A91548FDF747FD01A91348E8
:1043E000FDF785FD01A91148FDF7CEFD01A90F4894
:1043F000FDF715FE08210D48FEF786F908210B4848
:10440000FEF78BF908210948FEF794F908210748BF
:10441000FEF799F901210548FEF746F90121034805
:10442000FEF742F809B030BD000C01400008004022
:1044300000B587B001210846FDF7A2FB012108461F
:10444000FDF7ABFB01210420FDF79AFB01210820B9
:10445000FDF796FB01216748FDF741F94FF4004055
:10446000ADF8000004208DF8030069466248FDF7AE
:1044700065F80820ADF8000004208DF803006946B7
:104480005E48FDF75BF804A8FDF7DEFF0020ADF8FD
:1044900010004FF6FF70ADF814000020ADF81600C4
:1044A000ADF8120004A94FF08040FDF7A1FC0023F5
:1044B0001A4603214FF08040FEF7A9F801A8FDF746
:1044C000D6FF0A20ADF80C0001A94007FDF723FF35
:1044D00001218807FEF7AEFA012211469007FDF789
:1044E000FEFF00214FF08040FEF772FA012188079D
:1044F000FDF7DAFF07B000BD00B587B00121480322
:10450000FDF73EFB01211020FDF73AFBC020ADF87E
:10451000000004208DF8030069463948FDF70EF8C5
:1045200004A8FDF791FF0020ADF810004FF6FF70D2
:10453000ADF814000020ADF81600ADF8120004A983
:104540003048FDF755FC00231A4603212D48FEF79D
:104550005EF801A8FDF78BFF0A20ADF80C0001A959
:104560002848FDF7D8FE01212648FEF763FA01220C
:1045700011462448FDF7B3FF00212248FEF728FA30
:1045800001212048FDF790FF07B000BD0146022938
:1045900002D0082912D108E04FF08042928C10B26C
:1045A00000224FF080439A840AE0164A243212888F
:1045B00010B20022134B24331A8001E0002000BF08
:1045C00000BF70474FF08040008A4FF08040008A63
:1045D00020F001004FF080410882704709481030F8
:1045E000008808481030008820F00100054910318B
:1045F000088070470003180000080140000C0140CB
:10460000001001400034014008B501210820FDF7E9
:10461000B7FA4FF44060ADF8000010208DF80300A9
:1046200002208DF802006946F748FCF787FF08BDB5
:1046300010B5F548001D006820F47040F249091DCE
:1046400008600846006840F4405008600120EF49C7
:104650000860EF48D0F82C0108B9002010BD0120F7
:10466000EA49091F0860FEF740FC0020E849C1F84C
:10467000AC01E6488038006808B10020EEE7012070
:10468000FEF733FC0020E149091F08600120E5E73F
:1046900010B5DD48001D006820F47040DA49091D9E
:1046A00008600846006840F4405008600020D74980
:1046B000091F0860D649C1F8AC010120FEF715FCBE
:1046C0000120D249091F0860D149C1F8AC01FEF7A9
:1046D0000CFC10BD10B50024CB48001D006820F470
:1046E0007040C949091D08600846006840F4004050
:1046F00008600120C5490860FEF7F7FB0120C449A6
:10470000C1F8A801FEF7F1FB0AE0601CC4B2322C2C
:1047100003DDFFF7BDFF002010BD0120FEF7E5FB24
:10472000BA48803800680028EFD1B849091F0860EE
:104730000120F1E710B50020B449091F0860B24814
:10474000001D006820F47040AF49091D086008464C
:10475000006840F4405008600020AD49C1F8AC0149
:104760000120FEF7C2FB0120A849091F0860FEF7DF
:10477000BCFB0020A649C1F8A80110BD10B500205F
:10478000A249091F0860A048001D006820F470407D
:104790009D49091D08600846006840F440500860C3
:1047A00001209B49C1F8AC01FEF79FFB012097490E
:1047B000091F0860FEF799FB00209549C1F8A80180
:1047C00010BD70B504469048001D006820F470408C
:1047D0008D49091D08600846006840F44050086093
:1047E00000208A49091F0860002516E0E009874972
:1047F00008606006040E0120FEF777FB0120844963
:10480000C1F8A801FEF771FB00208049091F08606C
:104810000120FEF76AFB681CC5B2082DE6DB70BDFF
:104820002DE9F04105460E4617469846FFF700FF72
:1048300010B90120BDE8F0816906080EFFF7C1FF3D
:10484000FFF748FF18B9FFF723FF0120F2E73046D2
:10485000FFF7B7FFFFF73EFF00240BE018F8040056
:10486000FFF7AFFFFFF736FF18B9FFF711FF002082
:10487000E0E7641CBC42F1DBFFF70AFF0020D9E748
:1048800070B5054600246048001D006820F47040A3
:104890005D49091D08600846006840F40040086052
:1048A000002617E000205949091F08600220FEF782
:1048B0001CFB01205649C1F8A8016006040E5348AC
:1048C0008038006808B1601CC4B20220FEF70DFBFE
:1048D000701CC6B2082EE5DB15B1FFF72BFF01E017
:1048E000FFF74CFF204670BD2DE9F04106460F460C
:1048F00014461D46FFF79CFE10B90120BDE8F0816B
:104900007106080EFFF75DFFFFF7E4FE18B9FFF729
:10491000BFFE0120F2E73846FFF753FFFFF7DAFE4C
:10492000FFF786FE012101EB4601C8B2FFF749FF00
:10493000FFF7D0FE0DE0012C04D10020FFF7A0FF0F
:10494000287003E00120FFF79BFF28706D1C601E9C
:10495000C4B2002CEFD1FFF79BFE0020CEE770B56C
:1049600005460E460024FFF763FE2846FFF729FFA1
:10497000641CFFF7AFFE3046FFF723FF641CFFF710
:10498000A9FEFFF755FE691CC8B2FFF71AFF641CA9
:10499000FFF7A0FE0020FFF773FF0446FFF778FE45
:1049A000204670BD2DE9F0410746884615461E4653
:1049B0000024FFF73DFE3846FFF703FFFFF78AFEAE
:1049C0004046FFF7FEFEFFF785FEFFF731FE791C3C
:1049D000C8B2FFF7F6FEFFF77DFE00BF0DE0681ED0
:1049E000A04204D00120FFF74BFF305503E0002028
:1049F000FFF746FF3055601CC4B2AC42EFDBFFF757
:104A000047FE2046BDE8F081000C0140AC81214208
:104A1000008021422DE9F04180460D4616461F4692
:104A20000024FFF705FE4046FFF7CBFEFFF752FEDE
:104A30002846FFF7C6FEFFF74DFE00BF06E0385DD3
:104A4000FFF7BFFEFFF746FE601CC4B2B442F6DBC0
:104A5000FFF71EFE0120BDE8F08170B505460E4649
:104A6000144631462846FFF77AFF2070012070BDBA
:104A700037B504460D4602AB012229462046FFF712
:104A8000C9FF3EBD2DE9F8430746884614461D463A
:104A9000089E6A4641463846FFF7DFFF28B3601C90
:104AA000FF2101FA00F0C4F108012944491EFF2248
:104AB0000A41104300F0FF09C5F1080006FA00F0B2
:104AC000C6B2C4F1070006419DF8000000EA0900E3
:104AD00000909DF80000304300909DF80020414672
:104AE0003846FFF7C5FFBDE8F8830020FBE7F8B5BF
:104AF00006460F4614461D466A4639463046FFF7BD
:104B0000ACFF2DB10120A0409DF80010084305E046
:104B10000120A0409DF8001021EA0000C0B20090E2
:104B20009DF8002039463046FFF7A2FFF8BD00008F
:104B30001FB501210846FDF723F801211020FDF7DC
:104B40001FF82020ADF80C0048208DF80F0003A9B5
:104B50001148FCF7F3FC05210220FCF705FE20209C
:104B6000019000208DF808000C208DF8090001202C
:104B70008DF80A0001A8FCF723F917208DF8000032
:104B800001208DF801008DF802008DF803006846C1
:104B9000FBF7EBFC1FBD00000010014079490880C5
:104BA00000BF7849091F098801F040010029F8D0A9
:104BB000704700207349088000BF7248001F0088BA
:104BC00000F040000028F8D000206E49088000BFA7
:104BD0006C48001F008800F040000028F8D0172023
:104BE0006849088000BF6748001F008800F0400047
:104BF0000028F8D0704770B504460D462946204677
:104C0000FEF76CF800BF40215E48001FFEF7D4F8A5
:104C10000028F8D070BD70B505460C4604E0217838
:104C20002846FFF7E8FF641C20780028F7D170BD04
:104C30000FB438B5544806F04BFF054605A8009060
:104C40004FF40071504806F06AFF4FF400714E486F
:104C5000009B049A06F0D4FD0020009000240EE092
:104C600000BF40214748001FFEF7A6F80028F8D0F3
:104C70004548015D4348001FFEF730F8641CAC4214
:104C8000EEDB38BC5DF814FB10B586B0044601219C
:104C90000846FCF775FF01211020FCF771FF012188
:104CA0008804FCF77AFF01213848FCF718FD4FF41F
:104CB0008060ADF8140003208DF8160018208DF8E0
:104CC000170005A93248FCF739FC4FF40060ADF835
:104CD000140004208DF8170005A92D48FCF72EFCC0
:104CE00027208DF8000000208DF8010001208DF8AC
:104CF00002008DF803006846FBF737FC01940020A2
:104D0000ADF80800ADF80A00ADF80C00ADF81000E1
:104D10000C20ADF80E0001A91A48001FFDF7E5FEB2
:104D2000012240F225511748001FFDF776FF0121AF
:104D30001448001FFDF765FF06B010BD10B540F226
:104D400025511048001FFEF74DF8C8B10D48001F4F
:104D5000FDF7C8FFC4B20F4804600020FFF71EFF34
:104D60000020FFF71BFF1720FFF718FF09490878FD
:104D7000FFF714FF40F225510248001FFEF75CF8D0
:104D800010BD00000448004074080020100014000A
:104D900000100140340000202DE9F84304460D4680
:104DA00016461F46DDF820904FF0000814B10DB1F3
:104DB00006B117B90120BDE8F883601EC4B2681EB1
:104DC000C5B2701EC6B2781E87B201210846FCF734
:104DD000D7FE01210820FCF7D3FE01214806FCF78D
:104DE000DCFE01214FF4EA10FCF779FC4FF400706F
:104DF000ADF8000003208DF8020018208DF80300A4
:104E00006946FE48FCF79AFB4FF48070ADF800004D
:104E100048208DF803006946F848FCF78FFB002016
:104E2000F74908600846006840F00100086008E0A3
:104E300008F101001FFA80F8B8F1640F01DD0220CB
:104E4000B9E7EF48001D006800F001000028EFD02E
:104E5000EB480068EA4908600846006808600846B0
:104E6000006808600846006840F0100008600846C6
:104E7000006808600846006808600020E0491C31AE
:104E800008600846006840EA8970086008460068C3
:104E900040EA046008600846006840EA055008607F
:104EA0000846006840EA0640086008460068384343
:104EB0000860D348006820F00100D149086009E08B
:104EC00008F101001FFA80F84FF6F070804501DD0F
:104ED000032070E7CA48001D006800F001000028A8
:104EE000EED1C848006840F00100C6490860C548D6
:104EF0001C30006820F00100C2491C310860C14824
:104F00000C30006840F00100BE490C310860BD481B
:104F1000001D0068BB49091D0860BA4814300068CC
:104F2000B849143108600020B649403108600021BA
:104F3000B44844300160B3481C30006840F00100C0
:104F4000B0491C310860AF4800680020AD490860D6
:104F5000AB481430006840F00200A94914310860E1
:104F60000223142200210120FEF7B2F9002022E7DB
:104F7000F0B505460E46059CA1480830006800F0D3
:104F8000806008B1002111E09D480830006800F001
:104F9000006008B1012109E099480830006800F07C
:104FA000805008B1022101E0FF20F0BD00279548A4
:104FB000803800EB011007601EB9C5F30A056D05C6
:104FC00002E025F06045ED008E48803800EB0110CE
:104FD000006828438B4F803F07EB011738608948F2
:104FE000803800EB0110006840EA86078548803869
:104FF00000EB011007608348803800EB0110006867
:1050000040EA42077F48803800EB0110076003F058
:105010000F037C48803800EB0110406820F00F0738
:105020007848803800EB011047607648803800EB04
:10503000011040681843734F803F07EB01177860F9
:10504000E0790006A77940EA0740677940EA072738
:10505000207907436B48803800EB0110C760E07887
:105060000006A77840EA0740677840EA07202778DB
:105070003843644F803F07EB0117B86061488038C0
:1050800000EB0110006840F001075E48803800EB3B
:1050900001100760084688E70146002021B1012978
:1050A00016D002293CD127E0554A0832126802F096
:1050B00001021043524A0832126802F00202104301
:1050C0004F4A0832126802F0806240EA126029E01A
:1050D0004B4A0832126802F001021043484A083273
:1050E000126802F002021043454A0832126802F0C8
:1050F000006240EA526015E0414A0832126802F04C
:10510000010210433E4A0832126802F002021043C4
:105110003B4A0832126802F0805240EA926001E095
:10512000052000BF00BF7047014629B934480C3044
:10513000006800F003007047012905D130481030A5
:10514000006800F00300F6E70020F4E7F0B5DDE9C1
:1051500005542C4E503E06EB0016366806F0040649
:10516000167016783EB9274E503E06EB001636688C
:10517000760D0E6006E0234E503E06EB00163668B4
:10518000F6080E601F4E503E06EB0016366806F01D
:1051900002061E701B4E503E06EB0016766806F0A7
:1051A0000F062E70174E503E06EB0016B66826709E
:1051B000144E503E06EB0016B668360A6670114E65
:1051C000503E06EB0016B668360CA6700D4E503EEB
:1051D00006EB0016B668360EE6700A4E503E06EB39
:1051E0000016F6682671074E503E06EB0016F6686C
:1051F000360A6671034E503E06E00000000C014086
:10520000006400400066004006EB0016F668360CAD
:10521000A671604E06EB0016F668360EE67130B9E0
:105220005D4E366846F020065B4F3E6009E001287F
:1052300007D1594E361D366846F02006564F3F1DA1
:105240003E60F0BD10B58AB054A103C9CDE9040198
:1052500002A806A907AB08AACDE9001009A90020F9
:10526000FFF774FF00240BE0072C00D10AE002A82E
:10527000005D04A9095D884200D003E0601CC4B24F
:10528000072CF1DD00BF0AB010BDF8B505460E468B
:10529000002433460022114640F201600095FFF7DA
:1052A00067FE074601E0601C84B23846FFF7F4FE53
:1052B000072803D040F6FF708442F4DB40F6FF700D
:1052C000844201DB0120F8BD0020FCE710B586B068
:1052D00004460020FFF728FF10B9002006B010BDDB
:1052E00002A803AB04AA05A9CDE900040020FFF73A
:1052F0002DFF0598122805D19DF8100010B99DF8D2
:105300000C0008B1002002909DF80800E6E7F8B50F
:1053100005460E46002433460022114640F2017035
:105320000095FFF725FE074601E0601C84B2384671
:10533000FFF7B2FE072803D040F6FF708442F4DB8B
:1053400040F6FF70844201DB0120F8BD0020FCE73D
:10535000F8B506460D4600240823002211463046C3
:105360000095FFF705FE074601E0601C84B2384651
:10537000FFF792FE072803D040F6FF708442F4DB6B
:1053800040F6FF70844201DB0120F8BD0020FCE7FD
:1053900070470000B06500400C6400400A0C0F1319
:1053A000181E25002DE9F0438BB0FB48007800283B
:1053B0005CD1FA480068282802D0502854D130E047
:1053C000FFF7F7FBF648006808F0D0FF04460D46EB
:1053D000F448006808F0CAFF06460F46F248006825
:1053E00008F0C4FF80468946F048CDE908450068CA
:1053F000EF490968CDE90289CDE90467CDE90610D6
:10540000EC480069EB49C968CDE90010E9488368B8
:1054100042680168E8A006F00DFA0020DF49086044
:1054200023E0FFF7C6FBF148006808F09FFF044641
:105430000D46EF48006808F099FF0646ED480078F1
:10544000CDE90061CDE902450490EB480368EB48E3
:105450000268EB480168EBA006F0ECF90020CF49A8
:105460000860F649088000E000BF4CE0CA480078B8
:10547000012848D1C9480068282802D0502840D1C6
:1054800030E0FFF796FBC648006808F06FFF04465F
:105490000D46C448006808F069FF06460F46C2483A
:1054A000006808F063FF80468946C048CDE908459A
:1054B0000068BF490968CDE90289CDE90467CDE9F3
:1054C0000610DF480069DE49C968CDE90010DC48F4
:1054D000836842680168DBA006F0ACF90020AF49A0
:1054E00008600FE0FFF765FBC4480268C448016824
:1054F000E1A006F09FF90020A8490860CF49088084
:1055000000E000BF00BF0BB0BDE8F0832DE9F04F15
:105510008BB0CA4800880A2804D1C84800889F492F
:10552000086052E0C5480088142804D1C3480088A8
:105530009A49086049E0C14800881E2804D1BF4844
:1055400000889649086040E0BC480088282804D1BB
:10555000BA4800889149086037E0B8480088322886
:1055600004D1B64800888D4908602EE0B348008811
:105570003C2804D1B14800888849086025E0AF483C
:105580000088462804D1AD480088844908601CE0A2
:10559000AA480088502804D1A84800887F4908609C
:1055A00013E0A6480088642804D1A44800887B49F9
:1055B00008600AE0A1480088C82806DB9F480088E8
:1055C0007649086000209D490880B1480088B0F500
:1055D0007A7F03D1AE480088AE490860AE480068C3
:1055E00001287DD1AD480068C32848D117E0AC48F8
:1055F000AC49096850F82110AB48AA4A126840F833
:105600002210A84800680E2804DBFFF7D2FAA7A0F2
:1056100006F010F9A3480068401CA2490860A148A0
:1056200000680F28E3DB5D480068142826D1FFF7E7
:10563000C0FA9D49A74A126851F8220009F026F8DD
:1056400004462246A3480168A3A006F0F3F8A14847
:105650000068401C9F490860002050490860774955
:1056600008809C4800680E2808DD00208B490860EF
:10567000A0A006F0DFF8002096490860F3E1874813
:105680000068C4284AD117E085489B49096850F84A
:1056900021009A49984A126841F822009648006809
:1056A0000E2804DBFFF785FA95A006F0C3F89248B0
:1056B0000068401C904908608F4800680F28E3DBB1
:1056C000364800681428D9D1FFF773FA8B49814A0C
:1056D000126851F8220008F0D9FF0446224600E083
:1056E000ADE27C48016890A006F0A4F87948006813
:1056F000401C784908600020284908604F4908800C
:10570000744800680E28B9DD00206449086079A05B
:1057100006F090F800206F490860F3E35F480068E6
:10572000C52836D16B480068052833DA1B48006865
:105730001428A3D15C49674A126851F822008149B4
:10574000096808F03FFE044608F0BCFF7E49614A44
:10575000126821F81200FFF72CFA7B485D490968AE
:1057600030F811205B48016878A006F063F85948CA
:105770000068042802DD5FA006F05CF85548006868
:10578000401C544908600020044908602B490880E7
:10579000B8E3BDE1E4E000003C0100207801002016
:1057A0005401002054000020500000200800002078
:1057B00004000020740A00200D0A66533A20256474
:1057C000256425642564256420593A252E32662CEB
:1057D0005A3A252E32662C413A25642C423A2564E9
:1057E0002C6572726F723A252E326600800100209D
:1057F00084010020000000208C0100209002002085
:10580000840200200D0A563A2564202C2054656D30
:10581000703A2564202C46543A25642C70643A254D
:105820002E32662C2070693A252E32662C466C6129
:10583000675F53746F703A25640000002E000020EB
:10584000880A00200D0A62533A20256425642564E5
:105850002564256420593A252E32662C5A3A252E85
:1058600032662C413A25642C423A25642C657272CA
:105870006F723A252E3266000D0A563A2564202CA6
:105880002054656D705F436869703A25642000009C
:105890002C0000207C010020680100203400002042
:1058A0003408002094010020AC0A00205768697475
:1058B000655F6C696E655F646174756D20436F6CC4
:1058C0006C656374696F6E20636F6D706C65746571
:1058D000640D0A007001002057686974655F6C6987
:1058E0006E655F646174756D5B25645D3A25642047
:1058F000200000000D0A000098010020E80A0020A6
:10590000426C61636B5F726F61645F646174756D3B
:1059100020436F6C6C656374696F6E20636F6D708C
:105920006C657465640D0A00426C61636B5F726F35
:1059300061645F646174756D5B25645D3A25642004
:10594000200000006C010020040100206641444357
:10595000446174756D305B25645D3A2564202000D8
:10596000F348006805287DDBF14800680A2879DAE9
:10597000F0480068142876D1FFF71BF9EC4800685E
:10598000052816D1EC49EA4A126851F82200EB4981
:10599000096808F017FD044608F094FEE8490880FD
:1059A00008460288E24800210368E6A005F042FFAD
:1059B0004FE0DF480068092816D1DF49DC4A126849
:1059C00051F82200DD49096808F0FCFC044608F0A3
:1059D00079FEDB49488008464288D54801210368A2
:1059E000D8A005F027FF34E0D1480068072816D179
:1059F000D149CF4A126851F82200D049096808F00D
:105A0000E1FC044608F05EFECD49888008468288A5
:105A1000C74802210368CBA005F00CFF19E0C44879
:105A20000068062815D1C449C14A126851F82200FD
:105A3000C249096808F0C6FC044608F043FEC049A4
:105A4000C8800846C288BA4803210368BDA005F093
:105A5000F1FEB7480068092803DDAFF2681005F0D1
:105A6000E9FE01E00BE046E2B1480068401CB049A5
:105A700008600020AF490860B849088042E2AC489D
:105A800000680A28FADBAA4800680F28F6DAA94855
:105A900000681428F2D1A849A54A126851F82200DA
:105AA000A649096808F08EFC044608F00BFE81B296
:105AB0009F4800680A38AA4A22F81010FFF779F8C0
:105AC0009B4800680A38A64B33F8102098480068B5
:105AD000A0F10A0196480368A2A005F0ABFE944825
